{
  "_format": "hh-sol-artifact-1",
  "contractName": "SimpleAnchor",
  "sourceName": "contracts/SimpleAnchor.sol",
  "abi": [
    {
      "inputs": [
        {
          "internalType": "address",
          "name": "_operator",
          "type": "address"
        }
      ],
      "stateMutability": "nonpayable",
      "type": "constructor"
    },
    {
      "anonymous": false,
      "inputs": [
        {
          "indexed": true,
          "internalType": "bytes32",
          "name": "merkleRoot",
          "type": "bytes32"
        },
        {
          "indexed": true,
          "internalType": "uint256",
          "name": "timestamp",
          "type": "uint256"
        },
        {
          "indexed": false,
          "internalType": "string",
          "name": "batchId",
          "type": "string"
        }
      ],
      "name": "MerkleRootAnchored",
      "type": "event"
    },
    {
      "inputs": [
        {
          "internalType": "bytes32",
          "name": "merkleRoot",
          "type": "bytes32"
        },
        {
          "internalType": "string",
          "name": "batchId",
          "type": "string"
        }
      ],
      "name": "anchor",
      "outputs": [],
      "stateMutability": "nonpayable",
      "type": "function"
    },
    {
      "inputs": [],
      "name": "operator",
      "outputs": [
        {
          "internalType": "address",
          "name": "",
          "type": "address"
        }
      ],
      "stateMutability": "view",
      "type": "function"
    }
  ],
  "bytecode": "0x60a060405234801561001057600080fd5b506040516105ba3803806105ba833981810160405281019061003291906100cf565b8073ffffffffffffffffffffffffffffffffffffffff1660808173ffffffffffffffffffffffffffffffffffffffff1681525050506100fc565b600080fd5b600073ffffffffffffffffffffffffffffffffffffffff82169050919050565b600061009c82610071565b9050919050565b6100ac81610091565b81146100b757600080fd5b50565b6000815190506100c9816100a3565b92915050565b6000602082840312156100e5576100e461006c565b5b60006100f3848285016100ba565b91505092915050565b60805161049d61011d600039600081816077015261018a015261049d6000f3fe608060405234801561001057600080fd5b50600436106100365760003560e01c80631a8512ea1461003b578063570ca73514610057575b600080fd5b61005560048036038101906100509190610251565b610075565b005b61005f610188565b60405161006c91906102f2565b60405180910390f35b7f000000000000000000000000000000000000000000000000000000000000000073ffffffffffffffffffffffffffffffffffffffff163373ffffffffffffffffffffffffffffffffffffffff1614610103576040517f08c379a00000000000000000000000000000000000000000000000000000000081526004016100fa9061036a565b60405180910390fd5b6000801b8303610148576040517f08c379a000000000000000000000000000000000000000000000000000000000815260040161013f906103d6565b60405180910390fd5b42837f22938884ead98dcb2c301a8801a861d0934538567bb28bb5ff7c1ae5620cae5a848460405161017b929190610443565b60405180910390a3505050565b7f000000000000000000000000000000000000000000000000000000000000000081565b600080fd5b600080fd5b6000819050919050565b6101c9816101b6565b81146101d457600080fd5b50565b6000813590506101e6816101c0565b92915050565b600080fd5b600080fd5b600080fd5b60008083601f840112610211576102106101ec565b5b8235905067ffffffffffffffff81111561022e5761022d6101f1565b5b60208301915083600182028301111561024a576102496101f6565b5b9250929050565b60008060006040848603121561026a576102696101ac565b5b6000610278868287016101d7565b935050602084013567ffffffffffffffff811115610299576102986101b1565b5b6102a5868287016101fb565b92509250509250925092565b600073ffffffffffffffffffffffffffffffffffffffff82169050919050565b60006102dc826102b1565b9050919050565b6102ec816102d1565b82525050565b600060208201905061030760008301846102e3565b92915050565b600082825260208201905092915050565b7f536f6c6f20656c206f70657261646f7220707565646520616e636c6172000000600082015250565b6000610354601d8361030d565b915061035f8261031e565b602082019050919050565b6000602082019050818103600083015261038381610347565b9050919050565b7f4d65726b6c65526f6f74206e6f20707565646520736572206365726f00000000600082015250565b60006103c0601c8361030d565b91506103cb8261038a565b602082019050919050565b600060208201905081810360008301526103ef816103b3565b9050919050565b82818337600083830152505050565b6000601f19601f8301169050919050565b6000610422838561030d565b935061042f8385846103f6565b61043883610405565b840190509392505050565b6000602082019050818103600083015261045e818486610416565b9050939250505056fea2646970667358221220f1aeb73ea5a7c6f99e07ef66fb64064cf9c80bdd5a53d8194496d151603691ed64736f6c63430008180033",
  "linkReferences": {},
  "deployedLinkReferences": {}
}